{
  "contractName": "PhotoSharing",
  "abi": [
    {
      "anonymous": false,
      "inputs": [
        {
          "indexed": false,
          "internalType": "uint256",
          "name": "id",
          "type": "uint256"
        },
        {
          "indexed": false,
          "internalType": "string",
          "name": "hash",
          "type": "string"
        },
        {
          "indexed": false,
          "internalType": "string",
          "name": "description",
          "type": "string"
        },
        {
          "indexed": false,
          "internalType": "address payable",
          "name": "uploader",
          "type": "address"
        }
      ],
      "name": "ImageCreated",
      "type": "event"
    },
    {
      "inputs": [],
      "name": "imageCount",
      "outputs": [
        {
          "internalType": "uint256",
          "name": "",
          "type": "uint256"
        }
      ],
      "stateMutability": "view",
      "type": "function",
      "constant": true
    },
    {
      "inputs": [
        {
          "internalType": "uint256",
          "name": "",
          "type": "uint256"
        }
      ],
      "name": "images",
      "outputs": [
        {
          "internalType": "uint256",
          "name": "id",
          "type": "uint256"
        },
        {
          "internalType": "string",
          "name": "hash",
          "type": "string"
        },
        {
          "internalType": "string",
          "name": "description",
          "type": "string"
        },
        {
          "internalType": "address payable",
          "name": "uploader",
          "type": "address"
        },
        {
          "internalType": "uint256",
          "name": "likes",
          "type": "uint256"
        }
      ],
      "stateMutability": "view",
      "type": "function",
      "constant": true
    },
    {
      "inputs": [
        {
          "internalType": "string",
          "name": "_imgHash",
          "type": "string"
        },
        {
          "internalType": "string",
          "name": "_description",
          "type": "string"
        }
      ],
      "name": "uploadImage",
      "outputs": [],
      "stateMutability": "nonpayable",
      "type": "function"
    },
    {
      "inputs": [
        {
          "internalType": "uint256",
          "name": "_id_of_post_to_like",
          "type": "uint256"
        }
      ],
      "name": "likeAPost",
      "outputs": [],
      "stateMutability": "payable",
      "type": "function",
      "payable": true
    }
  ],
  "bytecode": "0x60806040526000805534801561001457600080fd5b50610e57806100246000396000f3fe60806040526004361061003f5760003560e01c8063848564821461004457806392053b6314610085578063a91b8314146100b0578063e953d54f146100d9575b600080fd5b34801561005057600080fd5b5061006b6004803603810190610066919061070f565b6100f5565b60405161007c95949392919061081c565b60405180910390f35b34801561009157600080fd5b5061009a61025b565b6040516100a7919061087d565b60405180910390f35b3480156100bc57600080fd5b506100d760048036038101906100d291906109cd565b610261565b005b6100f360048036038101906100ee919061070f565b6103ee565b005b600160205280600052604060002060009150905080600001549080600101805461011e90610a74565b80601f016020809104026020016040519081016040528092919081815260200182805461014a90610a74565b80156101975780601f1061016c57610100808354040283529160200191610197565b820191906000526020600020905b81548152906001019060200180831161017a57829003601f168201915b5050505050908060020180546101ac90610a74565b80601f01602080910402602001604051908101604052809291908181526020018280546101d890610a74565b80156102255780601f106101fa57610100808354040283529160200191610225565b820191906000526020600020905b81548152906001019060200180831161020857829003601f168201915b5050505050908060030160009054906101000a900473ffffffffffffffffffffffffffffffffffffffff16908060040154905085565b60005481565b600082511161026f57600080fd5b600081511161027d57600080fd5b600073ffffffffffffffffffffffffffffffffffffffff163373ffffffffffffffffffffffffffffffffffffffff16036102b657600080fd5b6000808154809291906102c890610ad4565b91905055506040518060a0016040528060005481526020018381526020018281526020013373ffffffffffffffffffffffffffffffffffffffff168152602001600081525060016000805481526020019081526020016000206000820151816000015560208201518160010190816103409190610cc8565b5060408201518160020190816103569190610cc8565b5060608201518160030160006101000a81548173ffffffffffffffffffffffffffffffffffffffff021916908373ffffffffffffffffffffffffffffffffffffffff160217905550608082015181600401559050507fb82a9f3a70bc97d2ca962d6c417b770c2158b2014d3f028d4de74b315692d4c76000548383336040516103e29493929190610d9a565b60405180910390a15050565b60008111801561040057506000548111155b61040957600080fd5b6000600160008381526020019081526020016000206040518060a00160405290816000820154815260200160018201805461044390610a74565b80601f016020809104026020016040519081016040528092919081815260200182805461046f90610a74565b80156104bc5780601f10610491576101008083540402835291602001916104bc565b820191906000526020600020905b81548152906001019060200180831161049f57829003601f168201915b505050505081526020016002820180546104d590610a74565b80601f016020809104026020016040519081016040528092919081815260200182805461050190610a74565b801561054e5780601f106105235761010080835404028352916020019161054e565b820191906000526020600020905b81548152906001019060200180831161053157829003601f168201915b505050505081526020016003820160009054906101000a900473ffffffffffffffffffffffffffffffffffffffff1673ffffffffffffffffffffffffffffffffffffffff1673ffffffffffffffffffffffffffffffffffffffff16815260200160048201548152505090506000816060015190508073ffffffffffffffffffffffffffffffffffffffff166108fc349081150290604051600060405180830381858888f19350505050158015610608573d6000803e3d6000fd5b503482608001516106199190610ded565b82608001818152505081600160008581526020019081526020016000206000820151816000015560208201518160010190816106559190610cc8565b50604082015181600201908161066b9190610cc8565b5060608201518160030160006101000a81548173ffffffffffffffffffffffffffffffffffffffff021916908373ffffffffffffffffffffffffffffffffffffffff16021790555060808201518160040155905050505050565b6000604051905090565b600080fd5b600080fd5b6000819050919050565b6106ec816106d9565b81146106f757600080fd5b50565b600081359050610709816106e3565b92915050565b600060208284031215610725576107246106cf565b5b6000610733848285016106fa565b91505092915050565b610745816106d9565b82525050565b600081519050919050565b600082825260208201905092915050565b60005b8381101561078557808201518184015260208101905061076a565b60008484015250505050565b6000601f19601f8301169050919050565b60006107ad8261074b565b6107b78185610756565b93506107c7818560208601610767565b6107d081610791565b840191505092915050565b600073ffffffffffffffffffffffffffffffffffffffff82169050919050565b6000610806826107db565b9050919050565b610816816107fb565b82525050565b600060a082019050610831600083018861073c565b818103602083015261084381876107a2565b9050818103604083015261085781866107a2565b9050610866606083018561080d565b610873608083018461073c565b9695505050505050565b6000602082019050610892600083018461073c565b92915050565b600080fd5b600080fd5b7f4e487b7100000000000000000000000000000000000000000000000000000000600052604160045260246000fd5b6108da82610791565b810181811067ffffffffffffffff821117156108f9576108f86108a2565b5b80604052505050565b600061090c6106c5565b905061091882826108d1565b919050565b600067ffffffffffffffff821115610938576109376108a2565b5b61094182610791565b9050602081019050919050565b82818337600083830152505050565b600061097061096b8461091d565b610902565b90508281526020810184848401111561098c5761098b61089d565b5b61099784828561094e565b509392505050565b600082601f8301126109b4576109b3610898565b5b81356109c484826020860161095d565b91505092915050565b600080604083850312156109e4576109e36106cf565b5b600083013567ffffffffffffffff811115610a0257610a016106d4565b5b610a0e8582860161099f565b925050602083013567ffffffffffffffff811115610a2f57610a2e6106d4565b5b610a3b8582860161099f565b9150509250929050565b7f4e487b7100000000000000000000000000000000000000000000000000000000600052602260045260246000fd5b60006002820490506001821680610a8c57607f821691505b602082108103610a9f57610a9e610a45565b5b50919050565b7f4e487b7100000000000000000000000000000000000000000000000000000000600052601160045260246000fd5b6000610adf826106d9565b91507fffffffffffffffffffffffffffffffffffffffffffffffffffffffffffffffff8203610b1157610b10610aa5565b5b600182019050919050565b60008190508160005260206000209050919050565b60006020601f8301049050919050565b600082821b905092915050565b600060088302610b7e7fffffffffffffffffffffffffffffffffffffffffffffffffffffffffffffffff82610b41565b610b888683610b41565b95508019841693508086168417925050509392505050565b6000819050919050565b6000610bc5610bc0610bbb846106d9565b610ba0565b6106d9565b9050919050565b6000819050919050565b610bdf83610baa565b610bf3610beb82610bcc565b848454610b4e565b825550505050565b600090565b610c08610bfb565b610c13818484610bd6565b505050565b5b81811015610c3757610c2c600082610c00565b600181019050610c19565b5050565b601f821115610c7c57610c4d81610b1c565b610c5684610b31565b81016020851015610c65578190505b610c79610c7185610b31565b830182610c18565b50505b505050565b600082821c905092915050565b6000610c9f60001984600802610c81565b1980831691505092915050565b6000610cb88383610c8e565b9150826002028217905092915050565b610cd18261074b565b67ffffffffffffffff811115610cea57610ce96108a2565b5b610cf48254610a74565b610cff828285610c3b565b600060209050601f831160018114610d325760008415610d20578287015190505b610d2a8582610cac565b865550610d92565b601f198416610d4086610b1c565b60005b82811015610d6857848901518255600182019150602085019450602081019050610d43565b86831015610d855784890151610d81601f891682610c8e565b8355505b6001600288020188555050505b505050505050565b6000608082019050610daf600083018761073c565b8181036020830152610dc181866107a2565b90508181036040830152610dd581856107a2565b9050610de4606083018461080d565b95945050505050565b6000610df8826106d9565b9150610e03836106d9565b9250828201905080821115610e1b57610e1a610aa5565b5b9291505056fea264697066735822122035e172ffbb3e6cf9699158baeed59ae3a188ce3d1854276bb9ad829eead30c3b64736f6c63430008110033",
  "immutableReferences": {},
  "source": "// SPDX-License-Identifier: MIT\n\npragma solidity ^0.8.0;\n\ncontract PhotoSharing {\n\n    uint public imageCount = 0;\n\n    mapping (uint => Image) public images;\n\n    struct Image {\n        uint id;\n        string hash;\n        string description;\n        address payable uploader;\n        uint likes;\n    }\n\n    event ImageCreated(\n        uint id,\n        string hash,\n        string description,\n        address payable uploader\n    );\n\n    function uploadImage(string memory _imgHash, string memory _description) public {\n\n        require(bytes(_imgHash).length > 0);\n\n        require(bytes(_description).length > 0);\n\n        require(msg.sender != address(0));\n\n        imageCount++;\n\n        images[imageCount] = Image(imageCount, _imgHash, _description, payable(msg.sender), 0);\n\n        emit ImageCreated(imageCount, _imgHash, _description, payable(msg.sender));\n        \n    }\n\n    function likeAPost(uint _id_of_post_to_like) public payable{\n        require(_id_of_post_to_like > 0 && _id_of_post_to_like <= imageCount);\n\n        Image memory _image_to_like = images[_id_of_post_to_like];\n\n        address payable _uploader = _image_to_like.uploader;\n\n        _uploader.transfer(msg.value);\n\n        _image_to_like.likes = _image_to_like.likes + msg.value;\n\n        images[_id_of_post_to_like] = _image_to_like;\n    }\n}",
  "sourcePath": "/home/ova/Desktop/test/social_dapp/contracts/PhotoSharing.sol",
  "compiler": {
    "name": "solc",
    "version": "0.8.17+commit.8df45f5f.Emscripten.clang"
  },
  "schemaVersion": "3.4.11",
  "updatedAt": "2023-02-06T19:03:24.839Z",
  "networkType": "ethereum",
  "devdoc": {
    "kind": "dev",
    "methods": {},
    "version": 1
  },
  "userdoc": {
    "kind": "user",
    "methods": {},
    "version": 1
  }
}