{
  "contractName": "PhotoSharing",
  "abi": [
    {
      "anonymous": false,
      "inputs": [
        {
          "indexed": false,
          "internalType": "uint256",
          "name": "id",
          "type": "uint256"
        },
        {
          "indexed": false,
          "internalType": "string",
          "name": "hash",
          "type": "string"
        },
        {
          "indexed": false,
          "internalType": "string",
          "name": "description",
          "type": "string"
        },
        {
          "indexed": false,
          "internalType": "address payable",
          "name": "author",
          "type": "address"
        }
      ],
      "name": "ImageCreated",
      "type": "event"
    },
    {
      "inputs": [],
      "name": "imageCount",
      "outputs": [
        {
          "internalType": "uint256",
          "name": "",
          "type": "uint256"
        }
      ],
      "stateMutability": "view",
      "type": "function"
    },
    {
      "inputs": [
        {
          "internalType": "uint256",
          "name": "",
          "type": "uint256"
        }
      ],
      "name": "images",
      "outputs": [
        {
          "internalType": "uint256",
          "name": "id",
          "type": "uint256"
        },
        {
          "internalType": "string",
          "name": "hash",
          "type": "string"
        },
        {
          "internalType": "string",
          "name": "description",
          "type": "string"
        },
        {
          "internalType": "address payable",
          "name": "author",
          "type": "address"
        }
      ],
      "stateMutability": "view",
      "type": "function"
    },
    {
      "inputs": [
        {
          "internalType": "string",
          "name": "_imgHash",
          "type": "string"
        },
        {
          "internalType": "string",
          "name": "_description",
          "type": "string"
        }
      ],
      "name": "uploadImage",
      "outputs": [],
      "stateMutability": "nonpayable",
      "type": "function"
    }
  ],
  "bytecode": "0x60806040526000805534801561001457600080fd5b50610a92806100246000396000f3fe608060405234801561001057600080fd5b50600436106100415760003560e01c8063848564821461004657806392053b6314610079578063a91b831414610097575b600080fd5b610060600480360381019061005b91906103df565b6100b3565b60405161007094939291906104ec565b60405180910390f35b610081610213565b60405161008e919061053f565b60405180910390f35b6100b160048036038101906100ac919061068f565b610219565b005b60016020528060005260406000206000915090508060000154908060010180546100dc90610736565b80601f016020809104026020016040519081016040528092919081815260200182805461010890610736565b80156101555780601f1061012a57610100808354040283529160200191610155565b820191906000526020600020905b81548152906001019060200180831161013857829003601f168201915b50505050509080600201805461016a90610736565b80601f016020809104026020016040519081016040528092919081815260200182805461019690610736565b80156101e35780601f106101b8576101008083540402835291602001916101e3565b820191906000526020600020905b8154815290600101906020018083116101c657829003601f168201915b5050505050908060030160009054906101000a900473ffffffffffffffffffffffffffffffffffffffff16905084565b60005481565b600082511161022757600080fd5b600081511161023557600080fd5b600073ffffffffffffffffffffffffffffffffffffffff163373ffffffffffffffffffffffffffffffffffffffff160361026e57600080fd5b60008081548092919061028090610796565b9190505550604051806080016040528060005481526020018381526020018281526020013373ffffffffffffffffffffffffffffffffffffffff1681525060016000805481526020019081526020016000206000820151816000015560208201518160010190816102f1919061098a565b506040820151816002019081610307919061098a565b5060608201518160030160006101000a81548173ffffffffffffffffffffffffffffffffffffffff021916908373ffffffffffffffffffffffffffffffffffffffff1602179055509050507fb82a9f3a70bc97d2ca962d6c417b770c2158b2014d3f028d4de74b315692d4c760005483833360405161038994939291906104ec565b60405180910390a15050565b6000604051905090565b600080fd5b600080fd5b6000819050919050565b6103bc816103a9565b81146103c757600080fd5b50565b6000813590506103d9816103b3565b92915050565b6000602082840312156103f5576103f461039f565b5b6000610403848285016103ca565b91505092915050565b610415816103a9565b82525050565b600081519050919050565b600082825260208201905092915050565b60005b8381101561045557808201518184015260208101905061043a565b60008484015250505050565b6000601f19601f8301169050919050565b600061047d8261041b565b6104878185610426565b9350610497818560208601610437565b6104a081610461565b840191505092915050565b600073ffffffffffffffffffffffffffffffffffffffff82169050919050565b60006104d6826104ab565b9050919050565b6104e6816104cb565b82525050565b6000608082019050610501600083018761040c565b81810360208301526105138186610472565b905081810360408301526105278185610472565b905061053660608301846104dd565b95945050505050565b6000602082019050610554600083018461040c565b92915050565b600080fd5b600080fd5b7f4e487b7100000000000000000000000000000000000000000000000000000000600052604160045260246000fd5b61059c82610461565b810181811067ffffffffffffffff821117156105bb576105ba610564565b5b80604052505050565b60006105ce610395565b90506105da8282610593565b919050565b600067ffffffffffffffff8211156105fa576105f9610564565b5b61060382610461565b9050602081019050919050565b82818337600083830152505050565b600061063261062d846105df565b6105c4565b90508281526020810184848401111561064e5761064d61055f565b5b610659848285610610565b509392505050565b600082601f8301126106765761067561055a565b5b813561068684826020860161061f565b91505092915050565b600080604083850312156106a6576106a561039f565b5b600083013567ffffffffffffffff8111156106c4576106c36103a4565b5b6106d085828601610661565b925050602083013567ffffffffffffffff8111156106f1576106f06103a4565b5b6106fd85828601610661565b9150509250929050565b7f4e487b7100000000000000000000000000000000000000000000000000000000600052602260045260246000fd5b6000600282049050600182168061074e57607f821691505b60208210810361076157610760610707565b5b50919050565b7f4e487b7100000000000000000000000000000000000000000000000000000000600052601160045260246000fd5b60006107a1826103a9565b91507fffffffffffffffffffffffffffffffffffffffffffffffffffffffffffffffff82036107d3576107d2610767565b5b600182019050919050565b60008190508160005260206000209050919050565b60006020601f8301049050919050565b600082821b905092915050565b6000600883026108407fffffffffffffffffffffffffffffffffffffffffffffffffffffffffffffffff82610803565b61084a8683610803565b95508019841693508086168417925050509392505050565b6000819050919050565b600061088761088261087d846103a9565b610862565b6103a9565b9050919050565b6000819050919050565b6108a18361086c565b6108b56108ad8261088e565b848454610810565b825550505050565b600090565b6108ca6108bd565b6108d5818484610898565b505050565b5b818110156108f9576108ee6000826108c2565b6001810190506108db565b5050565b601f82111561093e5761090f816107de565b610918846107f3565b81016020851015610927578190505b61093b610933856107f3565b8301826108da565b50505b505050565b600082821c905092915050565b600061096160001984600802610943565b1980831691505092915050565b600061097a8383610950565b9150826002028217905092915050565b6109938261041b565b67ffffffffffffffff8111156109ac576109ab610564565b5b6109b68254610736565b6109c18282856108fd565b600060209050601f8311600181146109f457600084156109e2578287015190505b6109ec858261096e565b865550610a54565b601f198416610a02866107de565b60005b82811015610a2a57848901518255600182019150602085019450602081019050610a05565b86831015610a475784890151610a43601f891682610950565b8355505b6001600288020188555050505b50505050505056fea2646970667358221220feec7a694f26edbdeeb7d9c5f5914d9b14f14d0c1d36186c4baeeb1469c4935764736f6c63430008110033",
  "immutableReferences": {},
  "source": "// SPDX-License-Identifier: MIT\n\npragma solidity ^0.8.0;\n\ncontract PhotoSharing {\n\n    uint public imageCount = 0;\n\n    mapping (uint => Image) public images;\n\n    struct Image {\n        uint id;\n        string hash;\n        string description;\n        address payable author;\n    }\n\n    event ImageCreated(\n        uint id,\n        string hash,\n        string description,\n        address payable author\n    );\n\n    function uploadImage(string memory _imgHash, string memory _description) public {\n\n        require(bytes(_imgHash).length > 0);\n\n        require(bytes(_description).length > 0);\n\n        require(msg.sender != address(0x0));\n\n        imageCount++;\n\n        images[imageCount] = Image(imageCount, _imgHash, _description, payable(msg.sender));\n\n        emit ImageCreated(imageCount, _imgHash, _description, payable(msg.sender));\n        \n    }\n}",
  "sourcePath": "/home/ova/Desktop/test/Social_Dapp/contracts/PhotoSharing.sol",
  "compiler": {
    "name": "solc",
    "version": "0.8.17+commit.8df45f5f.Emscripten.clang"
  },
  "schemaVersion": "3.4.11",
  "updatedAt": "2023-01-31T20:25:47.777Z",
  "devdoc": {
    "kind": "dev",
    "methods": {},
    "version": 1
  },
  "userdoc": {
    "kind": "user",
    "methods": {},
    "version": 1
  }
}